:020000040800F2
:1000000008270020AD0200082B35000857300008F3
:10001000293500087D090008393E0008000000006D
:10002000000000000000000000000000ED010008DA
:100030003B0A000800000000490200089938000847
:10004000C7020008C7020008C7020008C70200086C
:10005000C7020008C7020008C7020008C70200085C
:10006000C7020008C7020008C7020008810900088B
:100070008D090008C7020008C7020008C70200086F
:10008000C702000800000000C7020008C7020008FD
:10009000C7020008410A0008C7020008C70200089A
:1000A000C7020008C7020008C7020008C70200080C
:1000B000C7020008C7020008C7020008C7020008FC
:1000C000C7020008C7020008C7020008C7020008EC
:1000D000C7020008C7020008C7020008C7020008DC
:1000E000C7020008C7020008C7020008C7020008CC
:1000F000C7020008C7020008C7020008000000008D
:1001000000000000C702000800000000C70200084D
:10011000C702000800000000C7020008C70200086C
:10012000C7020008C7020008C7020008C70200088B
:10013000C70200080000000000000000C70200081D
:10014000C7020008C702000800000000000000000D
:10015000000000000000000000000000000000009F
:10016000000000000000000000000000C7020008BE
:10017000C7020008000000000000000000000000AE
:1001800000000000C702000800000000000000009E
:10019000000000000000000000000000000000005F
:1001A0000000000000000000C7020008C7020008AD
:1001B000C7020008C7020008C702000800000000CC
:1001C00000000000C702000800000000000000005E
:1001D000C7020008C7020008DFF80CD000F068FA78
:1001E000004800475D400008082700202C4B196894
:1001F0000868B0E8F04F80F30988BFF36F8F4FF0C5
:10020000000080F311887047000000000848006873
:10021000006880F308884FF0000080F3148862B60D
:1002200061B6BFF34F8FBFF36F8F00DF00BF00BF1A
:1002300008ED00E0DFF80C00016841F47001016096
:10024000704700BF88ED00E0EFF30980BFF36F8FC8
:10025000134B1A681EF0100F08BF20ED108A20E91A
:10026000F04F106009B44FF0500080F31188BFF3D5
:100270004F8FBFF36F8F04F0ADFE4FF0000080F39F
:10028000118809BC19680868B0E8F04F1EF0100F1B
:1002900008BFB0EC108A80F30988BFF36F8F7047F6
:1002A0002C000020EFF305807047000006488047CF
:1002B00006480047FEE7FEE7FEE7FEE7FEE7FEE74B
:1002C000FEE7FEE7FEE7FEE715390008D901000862
:1002D0002DE9F05F0546002092469B46884606467B
:1002E000814640241BE0284641464746224600F00E
:1002F00029F953465A46C01A914110D3114618465F
:10030000224600F010F92D1A67EB01084F462246ED
:100310000120002100F007F917EB00094E41201ED3
:10032000A4F10104DFDC484631462A464346BDE8D5
:10033000F09F40EA01039B0703D009E008C9121FA0
:1003400008C0042AFAD203E011F8013B00F8013B8F
:10035000521EF9D27047D2B201E000F8012B491EBB
:10036000FBD270470022F6E710B513460A46044652
:100370001946FFF7F0FF204610BD2DE9FE4F8046DD
:1003800081EA0300C00F0C46009021F0004123F0E9
:100390000045B8EB0200A94105D2404621469046EF
:1003A0001C460B46024623F00040104347D0270D61
:1003B000C7F30A00C3F30A510290401A0190402883
:1003C0006BDAC3F3130040F4801B0098924620B10F
:1003D0000023D2EB030A63EB0B0B01985946C0F1E3
:1003E0004002504600F09FF806460D4650465946DA
:1003F000019A00F0B7F810EB08006141002487EA89
:10040000115284EAE7731A4340D0009A62B3019A0A
:10041000012A4FEA075215DC001B61EB02014FF085
:10042000004202EA0752CDE90042001C41F580116A
:1004300032462B4600F0EEF803B0BDE8F08F4046A0
:100440002146F9E7001B61EB0201001C41F5801316
:1004500000185B412018A2F5001747EB030140EAA2
:10046000D570B6196D4111E06D084FEA360645EAC0
:10047000C0754FEA0752001B61EB0201001C41F5F9
:10048000801149084FEA30000019514132462B468D
:1004900003B0BDE8F04F00F0AEB800980122400074
:1004A0000023D0EB020263EBE073009821464FEA91
:1004B000E074B8EB000061EB0401E9E783F000436E
:1004C0005BE781F0004158E700F0004230F0004067
:1004D0000AD0C10D01F56071C0F3160042EA015166
:1004E000C20840071143704700200146704701F0E1
:1004F000004330B421F0004150EA010206D00A0D59
:10050000A2F56072C1F31301002A02DC30BC0020A6
:100510007047440F44EAC104C100E01830BC00EB4E
:10052000C25000F031B8202A04DB203A00FA02F170
:10053000002070479140C2F1200320FA03F31943D1
:1005400090407047202A04DB203A21FA02F0002173
:10055000704721FA02F3D040C2F1200291400843D3
:1005600019467047202A06DBCB17203A41FA02F0E1
:1005700043EAE07306E041FA02F3D040C2F1200200
:1005800091400843194670470029A8BF7047401C96
:10059000490008BF20F00100704710B4B0FA80FC99
:1005A00000FA0CF050EA010404BF10BC704749B1D6
:1005B000CCF1200421FA04F411FA0CF118BF012146
:1005C00021430843A3EB0C01CB1D4FEA00614FEA26
:1005D000102042BF002010BC704700EBC3501044F5
:1005E0000029A4BF10BC7047401C490008BF20F080
:1005F000010010BC704710B5141E73F1000408DA36
:10060000401C41F1000192185B411A4301D120F0D6
:10061000010010BD2DE9F04D92469B4611B1B1FA93
:1006200081F202E0B0FA80F220329046FFF77BFFC1
:1006300004460F4640EA0A0041EA0B0153465A4677
:10064000084313D0114653EA010019D0C8F1400203
:100650005046FFF777FF05460E465046594642463C
:10066000FFF761FF084305D0012004E0204639462A
:10067000BDE8F08D0020054346EAE0762C43374381
:100680000A986305E40AA0EB08000022FD0A44EA88
:1006900047540A3002D500200146E9E70105101948
:1006A0006941DDE9084500196941BDE8F04DA2E75F
:1006B000064C074D06E0E06840F0010394E80700AF
:1006C00098471034AC42F6D3FFF78AFD485E000825
:1006D000685E0008034951F820001421B0FBF1F0D6
:1006E00080B27047EC220020034951F82000142109
:1006F000B0FBF1F080B27047F822002010B5846A98
:10070000E16D11F0500F06D0E16DC90625D52046E8
:1007100000F088FD10BDE06D40F40070E0652068D9
:100720000168090716D502F0A9FC78B12068C068F5
:10073000800400280ADBE06D20F48070E065E06D45
:10074000C00403D4E06D40F00100E065204600F0F5
:1007500067FD10BDC0688007EBE7616D496BBDE8C0
:100760001040084710B5806AC16D41F04001C16575
:10077000016E41F00401016600F054FD10BD10B59A
:10078000806A00F04EFD10BD70B5044600688168B7
:100790008268C1F3400112F0010F28D039BB816893
:1007A00001F00D01012914D18168124A1140891C00
:1007B000816021680320086001F024FD054612E0F5
:1007C00001F020FD401B02280DD920688068C00779
:1007D00009D0E06D40F01000E065206E40F00100AF
:1007E0002066012070BD20688068C007E8D1002025
:1007F00070BD0000C0FFFF7FF8B5044600200090E8
:100800002068816811F0010F41D18168214A1142AD
:100810002ED18168D5432940491C81601E488068DB
:1008200000F0E07000020DD51C481D490068B0FBC7
:10083000F1F0401C00EB4000800000E0401E009002
:100840000028FBD101F0DEFC06461BE0816811F0B8
:10085000010F03D181682940491C816001F0D2FC5D
:10086000801B02280ED920680068C043C00709D049
:10087000E06D40F01000E065206E40F00100206661
:100880000120F8BD20680168C943C907DED10020F6
:10089000F8BD00003F000080000300502800002049
:1008A000400D03002DE9F04F1C4A1D4CDFF874E0A9
:1008B0001178002004F1F00A04F1780904F1FC0B2E
:1008C00000EB800C04EBCC075AF8206037F811508D
:1008D000761B3EF8105027F8115035444AF8205046
:1008E00009EBCC075BF8206037F811508C46761B7B
:1008F0000D4D35F8105027F8115035444BF8205065
:10090000401C0328DCDB0CF10101C8B21070142874
:1009100001D300201070BDE8F08F0000CE00002051
:10092000FC210020AC000020B200002000EE900A64
:100930009FED061ADFED061AF8EE600A30EEC11AD6
:10094000C1EE210A20EE800A7047000000F0FF444B
:1009500000F07F4530B50C4605000CD0022C0AD9BA
:100960000548A11E4288284600F06EF9291901F8B1
:10097000020D000A487030BDC0000020FEE70000F4
:10098000014800F083BE0000C4010020014800F0CF
:100990007DBE0000240200200D4902688A4201D277
:1009A0000C4901E00B492031D2B21423083AB2FBC2
:1009B000F3F2436C02F01F0223F003031944816435
:1009C00004498031C16401219140016570470000F4
:1009D00008040240000802400179074A02EB810244
:1009E0004265054A4432491E826501F01F02012119
:1009F0009140C16570470000FC08024030B5D0E965
:100A000013456560446D14B1D0E91645656090F8F2
:100A1000444004F01F050124AC40056C6C60046880
:100A200063608368102B036803D099600068C2601C
:100A300030BD9A600068C16030BD704772B6FEE795
:100A4000014801F078B8000084020020F0B5D1E937
:100A500001650C692C430D68C6B145F080452C43F7
:100A6000D1E90665354391F820704E69406D46EA3C
:100A7000076635438E8903EBC30300EBC30045EAE9
:100A80000645E0E802450023084C0AE044EA8544B4
:100A9000E6E7D618D55CD6F801601B1D45EA0625A9
:100AA00020C0CD68655D9D42F3D8F0BDC05A0008F6
:100AB000124A10B5FE21D171114900F5807008234A
:100AC000086000204860C1E902030861486188614C
:100AD000C8610862FF20107050709070D070107163
:100AE00050719071074800F045FF002804D0BDE820
:100AF000104005A003F0A2B910BD0000B80000200E
:100B00007821002084020020464443414E20536552
:100B10006E64205345545A45524F204661696C65B6
:100B2000640D0A0010B5144A09B1FC2100E0FD2152
:100B3000D171124900F580700823086000204860D8
:100B4000C1E90203086148618861C8610862FF2049
:100B5000107050709070D070107150719071064A82
:100B6000074800F007FF002804D0BDE8104005A0AA
:100B700003F064B910BD0000B80000207821002007
:100B800084020020464443414E2053656E64205346
:100B900054415445204661696C65640D0A000000AB
:100BA00000B587B0002002210090CDE901010121AC
:100BB000CDE90310059069460C4800F000FF10B124
:100BC0000BA003F03BF9094801F0C9F910B110A0DE
:100BD00003F034F900220121044800F05BFE0028F4
:100BE00002D011A003F02AF907B000BD8402002052
:100BF000464443414E2046696C74657220436F6ED3
:100C0000666967204661696C6564210D0A00000011
:100C1000464443414E205374617274204661696CAE
:100C20006564210D0A000000464443414E204E6F8A
:100C300074696669636174696F6E204661696C6589
:100C400064210D0A0000000010B558B1084C491E7F
:100C50000BD310F8013B5340DBB234F8133083EA76
:100C60001222F4E74FF6FF7010BD104610BD0000D1
:100C7000105C000810B5054C04E000BF10F8013B03
:100C80005340E25C491EF9D2104610BD105B0008CB
:100C9000F8B500260446009690F858000D46012845
:100CA0000BD0012084F858002046FFF76DFD0100AD
:100CB000E06D04D040F010002AE00220F8BD20F4DE
:100CC000885040F00200E06520688268134B1A40AB
:100CD00005F080431A4342F000428260104A2068C7
:100CE0000EE0009B5B1C0093934209D3E06D20F063
:100CF000020040F01000E06584F858600120F8BD63
:100D00008368DB0FEDD1E06D20F0020040F00100C0
:100D1000E06584F858600846F8BD0000C0FFFF3F5A
:100D200002DE04002DE9F047044690F858009CB01C
:100D30000E464FF00009012815D0012084F8580014
:100D400000251795189520684FF0A04840450ED112
:100D5000284F0097384602F08DF98246206802F04D
:100D600089F960B10EE002201CB0BDE8F087E06DAB
:100D700040F02000E06584F858500120F4E7BAF113
:100D8000000F09D0E06D40F02000E0654FF0010950
:100D900084F858504846E7E71748326840F61F7114
:100DA000002A826822F4604216D094F8383042EA71
:100DB000433273681A438260D8F80820BB6802F097
:100DC000010203F001031A43E2D1B36832681A4307
:100DD00083688B431A430BE08260D8F80820BB6815
:100DE00002F0010203F001031A43D1D182688A4361
:100DF0008260CDE700010050000300502DE9F84F5C
:100E000000270446009790F85800DFF8E0930D465D
:100E1000B846012811D0012684F85860206802F0F5
:100E200025F960B1E06D40F02000E0655FF001075A
:100E300084F858803846BDE8F88F0220FBE7D5E9F2
:100E400000210C23206803EA91131844036B01F07E
:100E50001F014FF01F0C0CFA01FCC2F3846223EA5D
:100E60000C038A4013430363206802F0FFF88246B4
:100E7000206802F0F7F85AEA00003CD1AA68296815
:100E80002068B2F1004F37D002F000F920684169C4
:100E900021F00041416120686969C268C2F3C10262
:100EA000520091402A69042A31D000EB82002B685D
:100EB000026EDFF83CC303F0F84302EA0C020B4376
:100EC0001A4342F00041016620682A69A96900EBD3
:100ED0008200026E22F080720A430266297F226835
:100EE0002869012910D0002102EB8000026E22F057
:100EF00000720A4302667DE0002202F0C7F8206813
:100F0000416941F00041C5E74FF00071ECE7002175
:100F100002F0A2F8400320684FF0000172D002F006
:100F20009BF890FAA0F0B0FA80F1286842036ED0E6
:100F300090FAA0F0B0FA80F0814204D1002211466C
:100F4000206802F0B2F80121206802F085F8400321
:100F500020684FF001015DD002F07EF890FAA0F019
:100F6000B0FA80F12868420359D090FAA0F0B0FAA4
:100F700080F0814204D100220121206802F095F81E
:100F80000221206802F068F8400320684FF0020157
:100F900048D002F061F890FAA0F0B0FA80F1286829
:100FA000420344D090FAA0F0B0FA80F0814204D11C
:100FB00000220221206802F078F80321206802F064
:100FC0004BF8400320684FF0030133D002F044F89F
:100FD00090FAA0F0B0FA80F1286842032FD090FA7E
:100FE000A0F0B0FA80F0814204D1002203212068F1
:100FF00002F05BF82068816811F0010F22D0ACE0AC
:1010000000E004E002F028F8C0F384618DE7C0F34B
:10101000846091E702F020F8C0F38461A2E7C0F396
:101020008460A6E702F018F8C0F38461B7E7C0F364
:101030008460BBE702F010F8C0F38461CCE7C0F332
:101040008460D0E72A7B296850F8B03FC1F3120CC6
:1010500023EA0C0302F0180C664A22FA0CF20A404A
:1010600013430360E968494577D1286841031CD0E0
:1010700090FAA0F1B1FA81F1491C01F01F01092990
:101080004FEA403132D8002912D000BF90FAA0F1C7
:10109000B1FA81F101F1010101F01F0106FA01F637
:1010A00009D100BFC0F3846109E0C0F38461E3E7C4
:1010B000C0F38461EEE790FAA0F1B1FA81F101F199
:1010C000010101F01F0146EA816102D1C0F3846091
:1010D00003E090FAA0F0B0FA80F000F1010000F017
:1010E0001F0000EB400041EA005132E000290ED021
:1010F00090FAA0F1B1FA81F101F1010101F01F01B3
:1011000006FA01F606D100BFC0F3846106E0C0F321
:101110008461F1E790FAA0F1B1FA81F101F10101E6
:1011200001F01F0146EA816102D1C0F3846003E04F
:1011300090FAA0F0B0FA80F000F1010000F01F007A
:101140002D4A00EB400002EB005041EA000141F063
:101150000071AA68206801F099FF28482A680242B5
:101160003FF466AE26488168264B01F0E0719A4252
:1011700002D0254B9A421CD10B021AD42268B2F13C
:10118000A04F7FF455AE826841F4000122F0E07276
:101190000A4382601D481E490068B0FBF1F0401C04
:1011A00000EB4000800000E0401E00900028FBD1D2
:1011B0003EE6184D184BAA4207D1CD0105D422684E
:1011C0009A42F5D041F0807109E0144DAA42EFD166
:1011D0004A02EDD422689A42EAD041F48001826842
:1011E00022F0E0720A43826022E6000000007F40A5
:1011F00000F0FF03FFFF0700000020FE0000088052
:1012000000030050000021C31000C09028000020FF
:10121000400D0300000052C700010050000084CBC5
:101220007047704770470000F8B54FF000050400A4
:101230002E46009502D0E06D10B107E00120F8BD08
:10124000204600F0EBF8266684F858602068816834
:10125000C1F3407119B18168684A1140816020680A
:101260008168C1F3007189B98168654A114041F014
:1012700080518160634864490068B0FBF1F0400030
:10128000801C00E0401E00900028FBD1206881688F
:10129000C1F3007141B9E16D41F01001E165216ECA
:1012A00041F001012166012501F0E0FEE16DC90672
:1012B00000D430B1E06D40F01000E0650125284613
:1012C000F8BDE06D20F4807040F00200E065206819
:1012D000806810F0010F11D14FF0A04080684B4999
:1012E00000F00100896801F00101084306D1484877
:1012F0006168826822F47C120A438260E168E06BD4
:10130000627F0843A16841EA4231084394F82410FF
:1013100040EA0140012904D1218D3E4A02EB4141BE
:101320000843E16A29B101F47871226B014342EA72
:1013300001002268D168384B19400143D160206810
:101340000169626B21F0406111430161206801F085
:1013500089FE70BB207F94F83810800340EA410278
:101360002168C86844F2020398431043C8602069AA
:101370000028206801690AD041F4803101612068A9
:1013800050F8C01F22696FF30D01114307E021F4EB
:1013900080310161206850F8C01F6FF30D010160BA
:1013A00094F8400001280CD02068016921F0010167
:1013B0000161606901282068016B21F00F0111D0E3
:1013C00013E0D4E911010843D4E91312114308438F
:1013D00021680A6940F2FC739A43104340F001000F
:1013E0000861E6E7226A521E11430163E06D20F0B6
:1013F000020040F00100E06561E70000C0FFFF5F10
:10140000C0FFFF7F28000020400D030000010050B6
:10141000000300500000FEFF0740F0FF2DE9F04FF1
:1014200097B00646142111A8FEF79CFF4421684698
:10143000FEF798FF4FF40041326800258803514FB2
:10144000514C4FF003084FF0800A4FF4807B4FF06F
:101450002009B2F1A04F10D04C4B9A424AD10091D2
:101460000F90684600F0D2FF08B1FFF7E7FA38683E
:10147000401C3860012840D047E000910F9068463A
:1014800000F0C4FF08B1FFF7D9FA3868401C386093
:10149000012807D1E06C40F40050E064E06C00F4F7
:1014A00000501690E06C40F00100E064E06C139591
:1014B00000F0010016900720CDE9110811A94FF0A6
:1014C000904000F069FD334C314804F10C0120607C
:1014D0000520C4E9010581E8200C4FF480602562F5
:1014E000C4E90609204600F02FF908B1FFF7A6FA73
:1014F0007465A66217B0BDE8F08FE06C40F4005050
:10150000E064E06C00F400501690E06C40F00100E4
:10151000E064E06C00F001001690E06C40F0020026
:10152000E064E06C139500F002001690CDE911988C
:101530004C46474611A94FF0904000F02DFD40F673
:1015400004001395CDE9110711A9134800F024FDFB
:10155000104F0F486037143001C72420E7E8020518
:101560004FF48060A7E8200C87E831000948183F55
:10157000603000F0E9F808B1FFF760FA7765BE6205
:10158000B8E70000180000200010024000010050E1
:1015900008000240C4010020000400482DE9F04189
:1015A0000446344817468846806800F01F052068C6
:1015B00001F05CFD00285AD194F85800012856D05B
:1015C000012084F85800002625B1052D02D0092DF0
:1015D00000D003E02046FFF70FF918B184F85860F7
:1015E000BDE8F081E06D40F60161884340F4807011
:1015F000E06521492068884202D14FF0A04100E017
:101600000146814200D01DB9E06D20F48010E065F4
:10161000E06DC00404D5206E20F00600206600E0D6
:101620002666616D1548C862616D15480863616D75
:101630001448486321681C20086084F858602068BA
:10164000416841F0100141602068C16841F001012A
:10165000C16021683B4642464031606D00F0D4F8DD
:1016600021688A68084B1A40121D8A60B8E7022078
:10167000B6E700000003005000010050FD0600081E
:101680007F07000865070008C0FFFF7FF0B4016C0A
:101690000C6801680D6890F8442002F01F060422CF
:1016A00002FA06F3234211D06B070FD50B689B0695
:1016B00003D40B6823F004030B6090F8441001F08E
:1016C0001F018A40016C4A60016B1DE0022303FA8E
:1016D00006F727424FF0000C4FF0010218D0AF0779
:1016E00016D50C68A40605D40C6824F00A040C6016
:1016F00080F8252090F8441001F01F018B40016C08
:101700004B6080F824C0C16A00291AD0F0BC084799
:101710000823B340234214D02B0712D50B6823F0C3
:101720000E030B6090F84410036C01F01F0102FAE5
:1017300001F15960C26380F8252080F824C0416B14
:10174000E2E7F0BC7047000070B504000CD02B4AF3
:1017500021681420914209D2294A0A44B2FBF0F0D0
:101760008000606427480AE0012070BD234A52428D
:101770000A44B2FBF0F0800060642048083820641E
:10178000022084F825000A6847F6F0708243D4E905
:1017900002031843D4E904352B431843A3691843C3
:1017A000E3691843236A1843104308602046FFF793
:1017B000F3F8A0680025B0F5804F00D16560A16CFA
:1017C00020790860D4E9130141606068401E032855
:1017D00008D82046FFF700F9606D0560D4E91601CE
:1017E000416002E06565A565E565E563012084F873
:1017F000250084F82450002070BD00000804024039
:10180000F8FFFDBF0000024070B5044690F82400C8
:10181000002501280CD0012084F8240094F82560CC
:101820000020012E06D084F824000225284670BD31
:10183000022070BD022684F82560E06320680668F7
:1018400026F0010606602046FFF7D8F8206B002836
:101850002068016802D041F00E0106E021F0040189
:1018600001602068016841F00A010160A06C016814
:10187000C90303D5016841F480710160606D18B13E
:10188000016841F4807101602068016841F0010144
:101890000160CBE730B590F85C30012B07D0022B0C
:1018A00005D0016E41F002010166012030BD0468DF
:1018B000A36D4D0701D0DD071DD011F0380F01D009
:1018C0009D0718D511F4E07F01D05D0713D511F401
:1018D000F05F01D01D070ED511F4604F01D0DD0679
:1018E00009D511F4403F01D09D0604D511F47C0FB9
:1018F00005D05D0603D4E56D45F00105E5654C07AF
:1019000001D0DC071DD111F0380F01D09C0718D48D
:1019100011F4E07F01D05C0713D411F4F05F01D023
:101920001C070ED411F4604F01D0DC0609D411F469
:10193000403F01D09C0604D411F47C0F06D05B0616
:1019400004D50368DC6D44F00204DC650B0604D5A5
:10195000036853F8DC4F14431C60CB0504D50368BF
:1019600053F8E04F14431C600068426D0A4342651F
:10197000002030BD70B5044690F85C00022803D00A
:10198000206E40F0080007E02068D0F8C4309B02C9
:1019900005D5206E40F400702066012070BDD0F89F
:1019A000C400C0F301452B462046FFF74FF82168DD
:1019B0000120A840C1F8CC00A065002070BD10B582
:1019C00090F85C20012A07D0022A05D0016E41F070
:1019D00002010166012010BD0A687AB10B7B0A6919
:1019E0000C7A42EA43734A69406C496842EA84725D
:1019F00000EBC100C0E90032002010BD0B7A4A693B
:101A00000C8A42EA83720B7B006CDB06496843EA6E
:101A100004431A4340F82120EEE770477047000066
:101A2000F0B590F85C400025022C03D0016E41F027
:101A3000080160E00468402946D0D4F89860360771
:101A400056D0D4F89860F60104D5D4F88060F60535
:101A500000D50125D4F89840C4F301246619C46C5C
:101A600006EBC60504EBC504256815F080455560F6
:101A7000256843D025F06045156025682C4F05F09A
:101A80000055956020CC05F00045156134F8045BE5
:101A9000ADB2D56154F8045CC5F30345D56054F884
:101AA000045C05F48015556154F8045C05F40015D8
:101AB000956154F8045CC5F30665156254F8045C3E
:101AC000ED0F5562002522E0D4F8906036070FD064
:101AD000D4F89060F60104D5D4F88060B60500D53E
:101AE0000125D4F89040C4F301246619846CB7E74B
:101AF000016E41F4807101660120F0BDC5F38A4595
:101B0000BAE700BF14F805C003F805C06D1CD2F891
:101B10000CC017F80CC0AC45F4D80068402903D0BD
:101B2000C0F89C600020F0BDC0F89460FAE70000A7
:101B3000C05A000870472DE9F05F04460068016D47
:101B4000426D01F4E05102EA0108016D426D01F0BD
:101B5000070102EA0109016D426D01F0380102EA54
:101B6000010A016D476D01F471010F40016D426D75
:101B700001F46021456D02EA010B016DCE4371064F
:101B800007D4E943490604D4402101652046FFF704
:101B9000D1FFF0050ED4E843C0050BD42068D0F87F
:101BA000D820D0F8E01011404FF480720265204632
:101BB00000F0EDF9B8F1000005D021680865414654
:101BC000204600F0E6F9B9F1000005D0216808656B
:101BD0004946204600F0AAF9BAF1000005D0216874
:101BE00008655146204600F0B9F9B00509D4E8432C
:101BF000800506D421684FF400700865204600F087
:101C0000C9F930060DD4E84300060AD42068D0F89C
:101C1000D420D0F8DC10114080220265204600F06C
:101C2000B7F9B00409D4E843800406D421684FF41E
:101C300000500865204600F0A9F9300409D4E843B3
:101C4000000406D421684FF400400865204600F0E7
:101C50009CF970040AD4E843400407D421684FF487
:101C600080400865206E40F080002066BBF10000D7
:101C700005D02168086559462046FFF7CFFE27B1F9
:101C800020680765206E38432066206E002802D049
:101C90002046FFF7C2FEBDE8F09F00002DE9F041AD
:101CA000040006D0DFF8E88194F85C00002518B144
:101CB00007E00120BDE8F08184F85D50204600F087
:101CC000EFF82068816921F01001816100F09AFA33
:101CD0000646032705E000BF00F094FA801B0A289F
:101CE00011D8206880690007F6D42068816941F026
:101CF0000101816100F086FA06460BE000F082FAED
:101D0000801B0A2806D9206E40F00100206684F866
:101D10005C70CEE720688069C007EFD020688169D9
:101D200041F0020181612168414502D15949606851
:101D30000860207C01282068816937D041F040018B
:101D40008161607C01282068816932D021F4804162
:101D50008161A07C0128206881692DD041F48051E7
:101D6000816120688169A26821F440711143816119
:101D70002068816921F0A40181612068016921F056
:101D800010010161E068012819D010B302281BD0AE
:101D90002068816941F0800181612068016941F01A
:101DA00010010161E06803280ED012E021F040012B
:101DB000C6E741F48041CBE721F48051D0E72068A9
:101DC000816941F0040103E02068816941F020014C
:101DD0008161207EE26940066FF0FF0101EB022283
:101DE000A0F100701043226AA38A521E10430A0217
:101DF00002EB034318432368D861A068B0F5407F25
:101E000010D1D4E90A0301EB0321401E0843216BE2
:101E1000131303EB01110843A18C02EB01410843AA
:101E20002168C860206850F8C01FE26B1143016050
:101E300019482064216851F8802FA38E22F4F812EB
:101E400042EA03420A60144970316164216851F822
:101E5000802F94F8383022F0706242EA03620A6000
:101E60000D49B031A1640D49E1640C49D8312165B7
:101E70000A49F031616500F5547120C08842FCD3F5
:101E8000A5652566012084F85C00002012E70000AB
:101E9000006400400065004000A4004088A50040A8
:101EA00010B598B00446142111A8FEF75BFA44213E
:101EB0006846FEF757FA1B49206888422FD18014E4
:101EC000002400900C94684600F0A0FA08B1FEF7D8
:101ED000B5FD1548816D41F000718165816D01F09E
:101EE00000711691C16C41F00101C164C06C11A96F
:101EF00000F0010016904FF4C05011900220CDE97F
:101F000012040920CDE91440C00600F045F8002273
:101F10000521152000F0E2F9152000F0D1F918B0E4
:101F200010BD0000006400400010024000B58DB0FC
:101F30000AAB6A464021FFF773FD002802D002A0D9
:101F400001F07CFF0DB000BD464443414E20525885
:101F5000204572726F720D0A00000000704790F801
:101F60005C10012905D0016E41F0040101660120D9
:101F70007047022180F85C1001688A6922F0010232
:101F80008A610021016608467047704770477047B4
:101F900070477047704700002DE9F04FDFF820923E
:101FA000002301260324A9F1040B85B00F2709F1B2
:101FB000040AABF1040EFAE006FA03F52A407CD0DD
:101FC00091F804C00CF0030CBCF1010F02D0BCF17D
:101FD000020F26D1D0F808C0CDF800C04FEA430C5C
:101FE00004FA0CF8CDF810C0DDF800C02CEA080C9B
:101FF000CDF800C0D1F80C80DDF810C008FA0CF85C
:10200000DDF800C048EA0C08C0F80880D0F804C029
:102010002CEA050C0D79C5F300159D4045EA0C0529
:1020200045600D79ED43AD070ED0C5684FEA430812
:1020300004FA08FC25EA0C05D1F808C00CFA08FCE3
:102040004CEA050CC0F80CC00D7905F00305022D13
:1020500016D1DD0800EB850CCDF808C0DCF8208037
:102060005D074FEAD56C07FA0CF528EA05080D69FB
:1020700005FA0CF5DDF808C045EA0805CCF8205053
:1020800005684FEA430CCDF808C004FA0CFC25EAB9
:102090000C0591F804C00CF00308DDF808C008FA3C
:1020A0000CF848EA0508C0F800804D6815F4403F78
:1020B0007CD0444DD5F860C000E077E04CF0010CD6
:1020C000C5F860C02D6E23F0030C05F001050095E6
:1020D0003D4D65440295AD684FEA837C4FEA1C781C
:1020E00007FA08FC25EA0C05B0F1904F06D0DFF89E
:1020F000DCC0604505D14FF0010C20E04FF0000C32
:102100001DE0DFF8CCC0604502D14FF0020C16E0B4
:10211000DFF8C0C0604502D14FF0030C0FE0DFF8DC
:10212000B8C0604502D14FF0040C08E0DFF8ACC045
:10213000604502D14FF0050C01E04FF0060C0CFA9F
:1021400008FC4CEA050C029DC5F808C0D9F80050FF
:10215000CC46D1F8048095435FEAC82800D51543E2
:10216000CCF80050DAF80050D446D1F804809543FA
:102170005FEA882800D51543CCF80050DBF8005002
:10218000DC46D1F8048095435FEA883800D51543D2
:10219000CCF80050DEF80050F446D1F804809543A6
:1021A0005FEAC83800D51543CCF800505B1C0A68BC
:1021B00032FA03F57FF400AF05B0BDE8F08F000000
:1021C00008040140001002400000014000040048E3
:1021D00000080048000C00480010004800140048A7
:1021E0000069084000D001207047426921EA0203DB
:1021F0000A4043EA0241816170470AB18161704738
:102200008162704701488068704700001C00002010
:102210000248816842681144816070471C000020B8
:1022200010B50024032000F079F80F2000F008F822
:1022300008B1012401E000F025F8204610BD00009F
:1022400070B50E4E05460024706898B14FF47A714F
:10225000B1FBF0F00A490968B1FBF0F000F064FD51
:1022600040B9102D06D200222946501E00F036F843
:10227000356000E00124204670BD00001C000020F5
:10228000280000200D4808B5016E41F001010166EB
:10229000016E01F001010091816D41F08051816575
:1022A000806D002200F0805000900F21901E00F001
:1022B00015F8BDE8084000F0A1B800000010024089
:1022C000002809DB00F01F02012191404009800035
:1022D00000F1E020C0F8001170470000F0B40E4B90
:1022E0001B680C46C3F30223C3F10705042D00D974
:1022F0000425191D072901D2002300E0DB1E012659
:1023000006FA05F1491E214099409E40761E16406E
:102310003143F0BC01F09ABD0CED00E0064900F03D
:10232000070208684FF6FF03184040EA0220034AFC
:1023300010430860704700000CED00E00000FA0553
:102340002B492C4B0A6832214A432B4940B1B0F546
:10235000007F086829D020F4C06040F480602CE041
:102360000868C0F34120022804D051F8800F20F4FF
:10237000807022E0D1F8800020F48070C1F88000E5
:10238000086820F4C06040F400700860B2FBF3F00D
:10239000401C00E0401E4A69520501D50028F9D1D1
:1023A000486940050AD503207047C0F34120022840
:1023B00006D051F8800F40F480700860002070470C
:1023C000D1F8800040F48070C1F88000086820F4E3
:1023D000C06040F400700860B2FBF3F0401C00E005
:1023E000401E4A695205DBD50028F9D1D8E7000024
:1023F0002800002040420F00007000400248816821
:1024000041F4804181607047007000402DE9F8433D
:102410000446006800269D4D00035ED5A86D002788
:10242000C00008D4A86D40F08050A865A86D0127B1
:1024300000F080500090DFF85892D9F8001041F475
:102440008071C9F80010FFF7DDFE804606E000BF8E
:10245000FFF7D8FEA0EB080002282BD8D9F800001F
:10246000C005F5D5D5F8900010F4407014D0216C5B
:10247000814211D0D5F89000D5F8901020F440702A
:1024800041F48031C5F89010D5F8901021F48031D6
:10249000C5F89010C5F89000C00711D0FFF7B2FE44
:1024A000804641F2883907E0FFF7ACFEA0EB080157
:1024B000494501D903260BE0D5F890008007F3D5F4
:1024C000D5F89000216C20F440700843C5F89000C6
:1024D0001FB1A86D20F08050A8652078C00707D0F4
:1024E000D5F88800616820F003000843C5F888002B
:1024F0002078800707D5D5F88800A16820F00C0067
:102500000843C5F888002078400707D5D5F888002B
:10251000E16820F030000843C5F888002078000703
:1025200007D5D5F88800216920F0C0000843C5F818
:1025300088002078800607D5D5F88800616920F4E6
:1025400040600843C5F888002078400607D5D5F8D4
:102550008800A16920F440500843C5F8880020781D
:10256000000607D5D5F88800E16920F4404008430B
:10257000C5F888002088C00507D5D5F88800216AED
:1025800020F440300843C5F888002088800507D52E
:10259000D5F88800616A20F440200843C5F8880017
:1025A000208840050FD5D5F88800A16A20F4401096
:1025B0000843C5F88800A06AB0F5801F03D1E86819
:1025C00040F48010E860208800050FD5D5F8880019
:1025D000E16A20F440000843C5F88800E06AB0F5DD
:1025E000800F03D1E86840F48010E8602088C004C0
:1025F0000FD5D5F88800216B20F040700843C5F84E
:102600008800206BB0F1807F03D1E86840F480102F
:10261000E86020884FF0006180040ED5D5F888006E
:10262000626B20F040601043C5F88800606B884200
:1026300003D1E86840F48010E860208840040ED59B
:10264000D5F88800A26B20F040601043C5F88800E0
:10265000A06B884203D1E86840F48010E8602088CD
:1026600000040FD5D5F88800E16B20F040500843F6
:10267000C5F88800E06BB0F1805F03D1E86840F4F2
:102680008030E8603046BDE8F8830000001002406A
:10269000007000402DE9F0470E4605004FF000079E
:1026A00025D0DFF8AC81D8F8000000F00F00B04270
:1026B0000CD2D8F8001021F00F013143C8F80010F7
:1026C000D8F8000000F00F00B04210D12968614C2A
:1026D000C80741F2883A5AD06868DFF87C9103282D
:1026E00008D0022820682DD0400500282CDB0120CE
:1026F000BDE8F08720688001F9D5E06800F00302AA
:10270000E068C0F30310401C032A19D0534A00BFED
:10271000B2FBF0F0E268C2F306225043E268C2F373
:102720004162521C5200B0FBF2F0484517D9A06834
:1027300010F0F00F0CD0880711D5A86840B10EE05A
:10274000474AE5E78003D0E700F0B6F8484506D9E8
:10275000A06820F0F00040F08000A0608027A06812
:10276000696820F003000843A060FFF74BFD814635
:1027700006E000BFFFF746FDA0EB090151453AD83E
:10278000A068696800F00C00B0EB810FF2D12868F6
:10279000810714D5400703D5A06840F4E060A0602D
:1027A0002878000705D5A06820F4605040F4E06068
:1027B000A060A068A96820F0F000084304E0802F22
:1027C00003D1A06820F0F000A060D8F800104046C7
:1027D00001F00F01B14216D9016821F00F01314318
:1027E0000160FFF70FFD074607E000BFFFF70AFD96
:1027F000C11B514501D903207AE7D8F8000000F049
:102800000F00B042F2D12878400705D5A068E968EA
:1028100020F4E0600843A0602878000706D5A0688F
:10282000296920F4605040EAC100A06000F044F83B
:10283000A1680C4AC1F30311515C01F01F01C840AB
:102840000949086009480068BDE8F047FFF7F8BC8F
:10285000002002400010024000B4C4040024F40030
:1028600000127A00F85A0008280000201C000020FE
:102870000548064900688968054AC1F30221515C90
:1028800001F01F01C84070472800002000100240DE
:10289000085B00080548064900688968054AC1F3D5
:1028A000C221515C01F01F01C84070472800002080
:1028B00000100240085B0008184910B58868C0F392
:1028C00081021748012A0BD08A684310C2F38102A3
:1028D000022A06D08A68C2F38102032A03D00020AC
:1028E00010BD184610BDCA6802F00304CA68C2F3DE
:1028F0000312521C032C02D0B0FBF2F001E0B3FB38
:10290000F2F0CA68C968C2F306225043C1F34161BC
:10291000491C4900B0FBF1F010BD0000001002405E
:102920000024F4002DE9F84304007AD02078F84D13
:10293000C00747D0A868E96800F00C0001F0030167
:102940000C2802D0082817D001E0032914D06068B1
:10295000B0F5803F17D0B0F5A02F286817D020F42D
:1029600080302860286820F4802028606068E0B10A
:10297000FFF748FC064614E02868800322D560680B
:102980000028D2D01EE0286840F48030EDE740F403
:1029900080202860F7E700BFFFF734FC801B642825
:1029A00070D828688003F7D50CE0FFF72BFC0646AB
:1029B00005E000BFFFF726FC801B6428F0D82868DC
:1029C0008003F7D4207880074CD5A868E96800F028
:1029D0000C0001F003010C2802D004280DD001E006
:1029E00002290AD0E068002828682BD040F48070C3
:1029F0002860FFF707FC064619E02868400502D565
:102A0000E068002891D06868217C20F0FE4040EA10
:102A100001606860BF480068FFF712FC002800D121
:102A200020E072E1FFF7EEFB801B0228B8D828688F
:102A30004005F7D56868217C20F0FE4040EA01603F
:102A400068600FE020F480702860FFF7DBFB06462B
:102A500005E000BFFFF7D6FB801B0228A0D828683E
:102A60004005F7D42078000729D560690028D5F8FB
:102A7000940013D040F00100C5F89400FFF7C2FBAA
:102A8000064606E090E000BFFFF7BCFB801B022873
:102A900086D8D5F894008007F6D510E020F0010024
:102AA000C5F89400FFF7AEFB064604E0FFF7AAFB6B
:102AB000801B022878D8D5F894008007F6D42078B7
:102AC000400761D5A86D0026C00008D4A86D40F06D
:102AD0008050A865A86D012600F0805000908E48B7
:102AE0000168C90511D40168804641F48071016014
:102AF000FFF788FB074604E0FFF784FBC01B0228B2
:102B000052D8D8F80000C005F6D5A068012815D025
:102B10000528D5F8900016D020F00100C5F89000E7
:102B2000D5F8900020F00400C5F89000A06841F2AC
:102B30008838B8B1FFF766FB07460EE0D5F890007D
:102B400040F00100F0E740F00400C5F89000F5E720
:102B5000FFF758FBC11B414526D8D5F890008007E8
:102B6000F6D50CE0FFF74EFB074604E0FFF74AFB03
:102B7000C11B414518D8D5F890008007F6D41EB186
:102B8000A86D20F08050A8652078800629D5A0691E
:102B90000028D5F8980013D040F00100C5F898003F
:102BA000FFF730FB064606E075E000BFFFF72AFBA3
:102BB000801B02286FD8D5F898008007F6D510E062
:102BC00020F00100C5F89800FFF71CFB064604E062
:102BD000FFF718FB801B02285DD8D5F89800800706
:102BE000F6D4E069F0B3A968C1F3810103295DD08F
:102BF0000228286820F08070286003D0FFF702FBCD
:102C000004464BE0FFF7FEFA064604E0FFF7FAFA47
:102C1000801B02283FD828688001F7D4F4E9080116
:102C20006FF00F0202EB01110843218A5204490898
:102C300002EB4151A26841EA02210843217D4FF095
:102C40007E42490802EB41610843217B40EAC160B2
:102C5000E968324A11400843E860286840F0807013
:102C6000286000E05EE0E86840F08070E860FFF710
:102C7000C9FA044605E000BFFFF7C4FA001B0228AA
:102C800009D828688001F7D54CE000BFFFF7BAFAF1
:102C9000001B022802D90320BDE8F88328688001C0
:102CA000F4D4E8681E490840E8603BE00128F3D00E
:102CB000E868226A00F00301914226D1616A00F0BF
:102CC000F0020901103991421FD1A26A00F4FE41BD
:102CD000B1EB022F19D194F82C2000F07841B1EB20
:102CE000C26F12D1218E00F4C00249084905A1F536
:102CF0000011914209D194F8341000F0C0604908E5
:102D00004906A1F1007181420CD00120C4E7000006
:102D1000001002401C000020007000400C809F0149
:102D2000FCFFEEFE0020B7E710B5401EB0F1807F3B
:102D300001D3012010BD4FF0E02460610F21601726
:102D400001F084F80020A06107202061002010BD60
:102D500090F88410012918D0012180F884102421D2
:102D6000C0F8881001680A680B6823F001030B6043
:102D700022F0005100224266036819602021C0F849
:102D8000881080F88420104670470220704770B584
:102D9000044690F8840001281DD0012084F88400A6
:102DA0002420C4F8880020680568026822F0010227
:102DB00002602068826822F060620A4382602046D6
:102DC00000F0B0FD206805602020C4F888000020D5
:102DD00084F8840070BD022070BD70B5044690F880
:102DE000840001281DD0012084F884002420C4F828
:102DF000880020680568026822F0010202602068ED
:102E0000826822F060420A438260204600F08AFD18
:102E1000206805602020C4F88800002084F8840021
:102E200070BD022070BD10B5040003D0D4F8880036
:102E300010B107E0012010BD002084F88400204676
:102E400000F026F82420C4F888002068016821F0EA
:102E500001010160A06A10B1204600F085FD204606
:102E600000F066FE0128E6D02068416821F4904118
:102E700041602068816821F02A0181602068016832
:102E800041F0010101602046BDE8104000F0D0BDD6
:102E9000F0B597B00446142111A8FDF763FA442158
:102EA0006846FDF75FFA3A4920683A4C0727022640
:102EB0000025884221D10120CDE900056846FFF7B1
:102EC000A5FA08B1FDF7BAFD206E40F480402066F7
:102ED000206E00F480401690E06C40F00100E06449
:102EE000E06CCDE9126500F0010016904FF4C0606F
:102EF000119011A94FF0904020E02749884223D13A
:102F0000684600960295FFF781FA08B1FDF796FD35
:102F1000A06D40F40030A065A06D00F40030169064
:102F2000E06C40F00200E064E06CCDE9126500F076
:102F30000200169018201190184811A9CDE91457D5
:102F4000FFF72AF817B0F0BD15498842FAD10420DE
:102F5000009003956846FFF759FA08B1FDF76EFD3A
:102F6000A06D40F48020A065A06D00F48020169034
:102F7000E06C40F00400E064E06CCDE9126500F024
:102F8000040016904FF44060119011A90548D5E750
:102F90000038014000100240004400400004004896
:102FA00000480040000800482DE9F8430446D0F8E6
:102FB0008800984616460D46202802D00220BDE81B
:102FC000F883A5B19EB10020C4F890002120C4F878
:102FD00088001834FFF716F9A6878146E68754F86B
:102FE000100C2027183CB0F5805F02D003E00120D0
:102FF000E5E7206910B12E46002510E000260EE01E
:103000008021204600F0CEFEC0B9DEB116F8010BDB
:1030100021688862B4F85600401EA4F85600B4F83F
:1030200056004B464FF00002CDF800800028E7D153
:103030004FF04001204600F0B5FE40B1C4F8887062
:103040000320BCE735F8020BC0F30800E0E7C4F842
:1030500088700020B3E7FEE700EB8100006E00F00F
:10306000F84070478068C0F3C00070478068C0F3C4
:10307000800070478068C0F380007047C06810F41B
:10308000406F01D00020704701207047042303EAFD
:10309000D15310B518444369C1F3045107248C403F
:1030A000A3438A401343436110BD00EB8100016ECE
:1030B00021F00041114301667047000070B58CB0EB
:1030C000002408940994202168460A94FDF74AF9DF
:1030D00028484FF0A041042501604FF44031C0E979
:1030E000011485610121C460C0E90441047741777E
:1030F0000326066280F82440C462046380F8381016
:10310000C46380F84040FEF78FF808B1FDF796FCE5
:1031100008A918480894FDF705FE08B1FDF78EFCD4
:10312000154800900620CDE901067F200594CDE9E1
:10313000030569460F48FDF761FE08B1FDF77EFC07
:103140000E4800900C20019069460A48FDF756FE93
:1031500008B1FDF773FC0A480090122001906946FF
:103160000448FDF74BFE002801D0FDF767FC0CB0CA
:1031700070BD0000EC000020020030040400600874
:103180000800900C70B588B020216846FDF7EAF879
:1031900025482449002401604FF44031C0E901145E
:1031A000042585610121C460C0E9044104774177A9
:1031B0000326066280F82440C462046380F8381055
:1031C000C46380F84040FEF72FF808B1FDF736FCE5
:1031D000164800900620CDE901067F200594CDE930
:1031E000030569461048FDF709FE08B1FDF726FC06
:1031F0000F4800900C20019069460B48FDF7FEFD3A
:1032000008B1FDF71BFC0B480090122001906946A5
:103210000548FDF7F3FD002801D0FDF70FFC08B0CD
:1032200070BD000000010050580100200010603205
:10323000002090360040C03A114808B5816C41F03A
:1032400004018164816C01F004010091816C41F002
:1032500001018164806C002200F0010000900521D2
:103260000B20FFF73BF80B20FFF72AF8002205217F
:103270000C20FFF733F8BDE808400C20FFF720B81A
:1032800000100240124810B5104901600021416051
:103290008160C1600174417481740122062342611E
:1032A000C0E906230262426282620822C2620322ED
:1032B000C0E90C218163C163FEF7F0FC002803D054
:1032C000BDE81040FDF7BABB10BD0000006400402F
:1032D0008402002010B50E4A00210E4800F07EFF47
:1032E0000D4C0B4A0021A06024320C4800F076FF00
:1032F000074AE06048320021094800F06FFF044AA5
:1033000020616C320021074800F068FF606110BD49
:10331000305A00081D37000800000020353700082B
:103320002D3500088D3800082DE9F04186B01421B4
:103330006846FDF717F82B48C16C41F00401C164E1
:10334000C16C01F004010591C16C41F02001C16420
:10335000C16C01F020010591C16C41F00101C16413
:10336000C16C01F001010591C16C41F00201C16421
:10337000C06C4FF0904700F0020005900122102130
:103380003846FEF73AFFDFF86080012240214046D0
:10339000FEF733FF0024C820CDE900046946384613
:1033A0000294FEF7F9FD10200125022603948DE812
:1033B000610069463846FEF7EFFD47F20300CDE9AC
:1033C0000004694609480294FEF7E6FD4020039494
:1033D0008DE8610069464046FEF7DEFD06B0BDE8B7
:1033E000F08100000010024000080048000400487E
:1033F000184810B5164901604FF4E13141600021D1
:1034000081600C22C160C0E904128161C161016266
:1034100041628162FFF707FD08B1FDF70FFB002154
:103420000C48FFF7DAFC08B1FDF708FB002109485A
:10343000FFF7ADFC08B1FDF701FB0648FFF788FC7C
:10344000002803D0BDE81040FDF7F8BA10BD000019
:1034500000380140E8020020184810B51649016004
:103460004FF4E1314160002181600C22C160C0E96C
:1034700004128161C161016241628162FFF7D3FC84
:1034800008B1FDF7DBFA00210C48FFF7A6FC08B1F4
:10349000FDF7D4FA00210948FFF779FC08B1FDF7E0
:1034A000CDFA0648FFF754FC002803D0BDE81040D1
:1034B000FDF7C4BA10BD0000004400407C030020AA
:1034C000184810B5164901604FF4E1314160002100
:1034D00081600C22C160C0E904128161C161016296
:1034E00041628162FFF79FFC08B1FDF7A7FA002156
:1034F0000C48FFF772FC08B1FDF7A0FA002109485B
:10350000FFF745FC08B1FDF799FA0648FFF720FCE4
:10351000002803D0BDE81040FDF790BA10BD0000B0
:103520000048004010040020FEE7FEE7FDF738FBEE
:103530004FF4487000F016FE694C207828B9062038
:10354000FDF7B6FA67A000F079FC2078A0460128C4
:1035500074D101210846FDF7E5FA052000F002FECE
:1035600001210220FDF7DEFA052000F0FBFD01211C
:103570000320FDF7D7FA052000F0F4FD0121042017
:10358000FDF7D0FA052000F0EDFD01210520FDF743
:10359000C9FA052000F0E6FD01210620FDF7C2FA78
:1035A000052000F0DFFD01210720FDF7BBFA052013
:1035B0008EE05148FEEE000A504C90ED000A504853
:1035C00020EE200A84ED000A90ED000A022000F0AF
:1035D00061FD4C4884ED010A90ED000A032000F0E3
:1035E00059FD4948B1EE400A84ED020A90ED000A07
:1035F000042000F04FFD4548B1EE400A84ED030A77
:1036000090ED000A052000F045FD4148B1EE400A6A
:1036100084ED040A90ED000A062000F03BFDB1EEB7
:10362000400A84ED050A00F087FC3A4C0126002789
:10363000394D6070012802D018B106E047E06E7085
:1036400000E06F70022000F08DFD00F0E5FCA0703E
:10365000012801D010B105E0AE7000E0AF7002208B
:1036600000F080FD00F09AFC00B10120E07000F055
:10367000B7FC00B10120207101F0C0F900B10120B8
:10368000607101F0D9F900B101202070E17809B131
:10369000EE700CE0217909B1022002E0617911B1EC
:1036A0001120E87003E008B16620FAE7EF7002200D
:1036B00000F058FD00F022FCA071012801D010B1EB
:1036C00005E02E7100E02F71022000F04BFD02207A
:1036D00000F048FD98F800000128F8D169E70000E3
:1036E000CF0000206D6F746F72205345545A4552BD
:1036F0004F206F6B0D0A0000D00000209C2100209D
:10370000D4000020D8000020DC000020E0000020D1
:10371000E400002000000020C4000020044C4021F0
:103720002046FEF762FDFA2000F01CFDF7E70000DE
:10373000000800482DED0C8B00F0B8FB00F0CAFB30
:103740009FED41DA9FED418B424C9FED439B444DF1
:103750009FED44AB454EF1EE00DA454F9FED45BB82
:10376000DFF818819FED46CBDFF81C91FDF79AF842
:103770000020FCF7AFFFB0EE4D0AFDF7D7F810EED2
:10378000100AFCF7A1FE53EC182BFCF7F6FDFCF732
:10379000AEFE20600120FCF79DFFB0EE4D0AFDF764
:1037A000C5F810EE100AFCF78FFE53EC192BFCF74E
:1037B000E4FDFCF79CFE28600220FCF78BFFB0EED6
:1037C0004D0AFDF7B3F810EE100AFCF77DFE53EC3E
:1037D0001A2BFCF773FEFCF78AFE30600020FCF722
:1037E00083FFB0EE4D0AFDF7A1F830EE2D0A01205F
:1037F00087ED000AFCF778FFB0EE4D0AFDF796F86A
:1038000010EE100AFCF760FE53EC1B2BFCF7B5FD25
:10381000FCF76DFEC8F800000220FCF765FFB0EE73
:103820004D0AFDF783F810EE100AFCF74DFE53EC3D
:103830001C2BFCF7A2FDFCF75AFEC9F80000022081
:1038400000F090FC92E700000000B443DDEC0F9420
:10385000DBB61D40D0000020965D30B8E66A3E40E1
:10386000D4000020299485AFAFF5EA3FD8000020AE
:10387000DC0000203333333333331340E0000020C7
:10388000158E209562270640E400002001F074F9AF
:10389000222000F067FCF9E710B5FEF7B9FC01F053
:1038A00011FF012803D0BDE8104001F03FBC10BD5E
:1038B00010B594B038216846FCF754FD14210EA8C9
:1038C000FCF750FD0020FEF73BFD012000900004B6
:1038D000019002200324CDE907045521CDE9090117
:1038E0000B900C900D906846FFF71CF808B172B66B
:1038F000FEE70F20CDE90E040020109011901290E9
:1039000004210EA8FEF7C6FE002801D072B6FEE71D
:1039100014B010BD0248016841F4700101607047A5
:1039200088ED00E030B5416EB9B1026891689268E7
:10393000C1F342610B4B520F9C5CE50003F108049C
:10394000A25CB5FBF2F2A0F86A205A5C615CD2007E
:10395000B2FBF1F1A0F8681030BD0121A0F86A10A7
:10396000F8E70000E85A000890F82810090706D583
:1039700001684A68836B22F400421A434A6090F857
:103980002810C90706D001684A68C36A22F40032C9
:103990001A434A6090F82810890706D501684A68DA
:1039A000036B22F480321A434A6090F828104907CA
:1039B00006D501684A68436B22F480221A434A60A4
:1039C00090F82810C90606D501688A68C36B22F4EE
:1039D00080521A438A6090F82810890606D501683B
:1039E0008A68036C22F400521A438A6090F8281007
:1039F000490611D501684A68436C22F480121A43C3
:103A00004A60416CB1F5801F06D101684A68836C39
:103A100022F4C0021A434A6090F82810090606D51D
:103A200001684A68C06C22F4002202434A60704771
:103A30002DE9F84300260446C0F89060FEF7E2FB4B
:103A40008046206800684FF0200500076FF07E4731
:103A500013D54346002229042046009700F0A2F91E
:103A600058B1216851E8000F20F0800041E80002C1
:103A7000002AF6D1C4F8885021E020680068400789
:103A800022D5434600224FF480012046009700F0E3
:103A900089F9C8B1216851E8000F20F4907041E81D
:103AA0000002002AF6D12068083050E8001F21F0FB
:103AB000010140E80012002AF5D1C4F88C5084F8C6
:103AC00084600320BDE8F883C4F88850C4F88C50A3
:103AD00044F86C6F666026760020F3E710B5026844
:103AE00052E8001F21F4907142E80013002BF6D138
:103AF0000E4B0268083252E8001F194042E80014D9
:103B0000002CF6D1C16E012908D1016851E8002FBF
:103B100022F0100241E80023002BF6D12021C0F84A
:103B20008C100021C166416710BD0000FEFFFFEF51
:103B30002DE9F0410446016880682269E369104379
:103B4000626900251A431043DFF82CC20A688B4BC8
:103B50001A4002430A6020684168E26821F440513B
:103B6000114341602168A069614501D0226A104378
:103B70008A68834B1A4002438A602068C16A626A7D
:103B800021F00F011143C1627E4923687E488B42B8
:103B90000DD1D0F8880010F0030006D0012855D0D0
:103BA000022842D003283FD152E001203DE077496E
:103BB0008B420BD1D0F8880010F00C0035D00428CF
:103BC00033D0082840D00C282ED141E070498B42D8
:103BD0000BD1D0F8880010F0300026D0102835D056
:103BE000202831D030281FD132E06A498B420BD1D6
:103BF000D0F8880010F0C00017D0402826D08028C8
:103C000022D0C02810D123E063450DD1D0F8880020
:103C100010F4406009D0B0F5806F17D0B0F5006F98
:103C200012D0B0F5406F13D010205B495B4F0026D7
:103C30004FF4004263453BD160B1022813D0042801
:103C40000BD0082872D10DE00220EEE70420ECE74B
:103C50000820EAE7FEF70CFE01E0FEF72DFE01006A
:103C600001D17CE01146606A37F810206768B1FB2B
:103C7000F2F007EB4703834270D8B0EB073F6DD8F3
:103C8000002308461946FCF723FB090241EA1061AC
:103C900002027808101871413A460023FCF718FB1D
:103CA0003F4AA0F54071914258D82168C86056E05B
:103CB000E3694FF6EF7893422CD109284ED2DFE822
:103CC00000F00508114D0D4D4D4D1000FEF7D0FDD3
:103CD00001E0FEF7DFFD010004D140E0FEF7ECFD5E
:103CE000F9E71146606A37F81000B1FBF0F04100C7
:103CF000606801EB5001B1FBF0F0A0F1100141450B
:103D00002CD84FF6F0710140C0F342000143206807
:103D1000C16024E0092821D2DFE800F00509122063
:103D20000E2020201100FEF7A3FD02E016E0FEF7B2
:103D3000B1FD010004D112E0FEF7BEFDF9E7114626
:103D4000606A37F81000B1FBF0F1606801EB5001D8
:103D5000B1FBF0F0A0F1100141450AD90125012085
:103D6000A4F86A0024F8680F2846E6602661BDE8DA
:103D7000F08180B299E7000000800040F369FFCF36
:103D8000FFF4FF11003801400010024000440040E1
:103D900000480040004C00400024F400D05A0008C5
:103DA000FFFC0F002DE9F047994617460D460446E3
:103DB0004FF00008089E33E0701C31D0FEF722FA65
:103DC000A0EB0900B04218D8BEB1206801684907CD
:103DD00026D5802D24D0402D22D0C169C9430907A2
:103DE0000DD4082505622046FFF778FEC4F89050F0
:103DF00084F884800120BDE8F0870320FBE7C069D8
:103E0000C04300050CD421684FF4006008622046CE
:103E1000FFF764FE2020C4F8900084F88480ECE76B
:103E20002068C06935EA000004D00020B842C3D041
:103E30000020E0E70120F9E7FEE70000014A02491F
:103E400000F023B87D3F0008E80000200907090EB4
:103E5000002804DB00F1E02080F80014704700F037
:103E60000F0000F1E02080F8141D704702E008C840
:103E7000121F08C1002AFAD170477047002001E0E4
:103E800001C1121F002AFBD170472DE9F0411646EF
:103E90000F460446002503E03946B047641C6D1CFC
:103EA00020780028F8D12846BDE8F08110B57F21A0
:103EB0000648FCF7EDFE322000F054F9BDE8104052
:103EC000032203490148FDF769BB0000EC00002014
:103ED000AC00002010B57F210648FCF7D9FE322047
:103EE00000F040F9BDE81040032203490148FDF706
:103EF00055BB000058010020B200002070B50D4EE7
:103F000002213046FEF76CF905460024012000F03E
:103F100029F902213046FEF763F9A84201D00024B6
:103F20000546641CE4B2062CF0D3012800D0002022
:103F300070BD0000000400482DE9F0410E4F4FF421
:103F4000804631463846FEF74BF9044600250120ED
:103F500000F008F931463846FEF742F9A04201D098
:103F6000002504466D1CEDB2062DF0D3012800D0CB
:103F70000020BDE8F08100000004004838B5044688
:103F80008DF800004FF47A73012269460248FFF76A
:103F90000BF8204638BD0000E80200202DE9F04172
:103FA0000E4F4FF4805631463846FEF719F9044655
:103FB0000025012000F0D6F831463846FEF710F90A
:103FC000A04201D0002504466D1CEDB2062DF0D3B1
:103FD000012800D00020BDE8F08100000004004866
:103FE00070B54FF0904640213046FEF7F9F805468F
:103FF0000024012000F0B6F840213046FEF7F0F82A
:10400000A84201D000240546641CE4B2062CF0D37B
:10401000012800D0002070BD2DE9F0410E4F4FF473
:10402000005631463846FEF7DBF8044600250120ED
:1040300000F098F831463846FEF7D2F8A04201D099
:10404000002504466D1CEDB2062DF0D3012800D0EA
:104050000020BDE8F081000000040048FEF7E0F811
:10406000FFF726FCFFF760F9FFF7E6F8FFF7C0F966
:10407000FFF724F8FFF786F8FFF704F9FFF7ECF9EC
:10408000FFF71EFA00F07CF8FFF724F900F08AF839
:10409000FEE70000801E05280BD2DFE800F00313C6
:1040A000230A330010EE100A1E49884202D99FED00
:1040B0001E0A704710EE100A1C498842F9D29FED83
:1040C0001C0A704710EE100A1A49884202D99FED67
:1040D0001A0A704710EE100A18498842F9DD9FED60
:1040E000180A704710EE100A1649884202D99FED4F
:1040F000160A704710EE100A14498842F9DD9FED48
:10410000140A704710EE100A1249884202D99FED36
:10411000120A704710EE100A10498842F9DD9FED2F
:10412000100A70470000B4C20000B4C200003CC2D4
:1041300000003CC2000007C3000007C300000743A3
:1041400000000743000020C3000020C30000B44269
:104150000000B4420000F0C20000F0C20000F042D3
:104160000000F04210B5EFF3058111B16FF00504C6
:1041700003E0002408B100F079FE204610BD0000E5
:10418000EFF3058010B16FF0050070470448016837
:1041900011B14FF0FF3070470121016000207047DE
:1041A0007C00002010B5EFF3058010B16FF0050022
:1041B00010BD08480168012902D04FF0FF3010BD42
:1041C000054A002182F8141D0221016000F0B6FEAC
:1041D000002010BD7C0000200BE000E02DE9FF4135
:1041E0004FEA01034FF00005EFF30581039549BB4A
:1041F00040B38027182100244AB3166806B134461C
:1042000096691EB13146761E382E02D21679F6070F
:1042100003D0002004B0BDE8F081566906B1B708AC
:10422000D2F808C0BCF1000F0DD0D5685C2D18D3B2
:1042300012693AB136B18DE806103A46214601F0CE
:1042400016FA03900DE0D6685EB912694AB903AA5E
:10425000CDE90012BAB2214601F0DCF9012800D004
:1042600003950398D6E700002DE9F041134C0F4663
:104270000546E6682068001D00F0C4FC681C07D1F4
:1042800037B12168BDE8F0410D48091D00F00ABDB5
:1042900020683544B5424560216805D2A06BBDE871
:1042A000F041091D00F0E6BC606B091D00F0E2FC66
:1042B000A06A854200D2A562BDE8F0812C000020F2
:1042C000940900202DE9F041054600F0F7FC2D4C43
:1042D000A068401CA06020682B4F10B1606930B30B
:1042E0002BE02560A068012827D1002606EB860078
:1042F00007EB800000F0B0FC761C382EF6D3234884
:1043000000F0AAFC2148143000F0A6FC1F48283019
:1043100000F0A2FC1D483C3000F09EFC1B485030D1
:1043200000F09AFC194860631430A06305E020682F
:10433000E96AC06A884200D82560606A401C6062F1
:104340006864E86A2169884200D9206100EB800036
:1043500007EB8000291D00F0A5FC00F0CFFC606990
:1043600000280CD02068E96AC06A884207D2084950
:104370004FF080500860BFF34F8FBFF36F8FBDE8E1
:10438000F08100002C000020E404002044090020FB
:1043900004ED00E038B500F091FC104C2068C8B97D
:1043A0000F4800F059FC0E48143000F055FC0C4842
:1043B000E060143020610A4B0020F03B009003F1D4
:1043C000500210210A2000F0C7FE206010B105A1A4
:1043D00000F016FDBDE8384000F090BC68000020F9
:1043E000980A0020546D72510000000030B4026C35
:1043F0000B46002A0BD0C1681144C1608468A142F9
:1044000001D30168C16030BC1846FBF792BF30BCD5
:1044100070472DE9F041856B174604460026026C73
:1044200082B1C7B1E068FBF784FFE168206C091A2C
:10443000E1602268914202D2A168081AE060022F6E
:1044400016D017E02068A8B9A06801F0B3F90646B5
:104450000020A0600EE06068FBF76BFF216C6068D5
:1044600008446060A168884204D32068606001E06D
:1044700005B16D1E6D1CA5633046BDE8F08110B519
:10448000044690F8590058B101280CD002280FD0EA
:10449000502080F31188BFF34F8FBFF36F8FFEE77B
:1044A000206B00F03FFC2046BDE8104000F03ABC15
:1044B00010BD000010484FF48051420706D0C01DC7
:1044C0000D4920F00700411AC1F580510B4A002325
:1044D0000144C2E900030839183A21F007011160CC
:1044E0004B600B600B1AC0E9001393604FF0004063
:1044F0005360506170470000781100209800002040
:10450000144E154CA6F29C474FF08058DFF84C90A3
:1045100012E000BF00F0D2FBF068C568281D00F073
:1045200071FBA068401EA0606068401E606000F0E3
:10453000E5FB2846FFF7A3FF60680028EAD138684A
:104540000128F9D9C9F80080BFF34F8FBFF36F8FEF
:10455000F2E70000800900202C00002004ED00E0BC
:1045600070B51D46049C51B1C4F80020C4E90F0188
:104570000121204600F024FE84F84C5070BD2460D8
:10458000F4E700002DE9F05F8846DDE90B9415465D
:10459000834691009A460A9EA522206BFBF7DBFE1C
:1045A0006FF00301206B01EB8501084420F0070741
:1045B000780707D0502080F31188BFF34F8FBFF3E7
:1045C0006F8FFEE70025B8F1000F0FD05FF00000FD
:1045D000221818F8001082F8341018F8001011B1E1
:1045E000401C1028F4D384F8435001E084F8345080
:1045F000382E00D33726E662C4E91365201D00F08B
:1046000036FB04F1180000F032FB2461C6F13800DB
:104610006462A061656584F8585052465946384630
:1046200000F094FA2060B9F1000F01D0C9F8004001
:10463000BDE8F09F30B5114900E011460A6882429A
:10464000FBD34B685C18844203D14068184448602F
:10465000084643681C18944209D1084C183C246849
:10466000A24209D052681A4442600A681268026085
:10467000814200D0086030BD0460F9E79800002056
:1046800070B5002441600B4D0061914206D8D11AEB
:104690008269914206D2011D286907E09A4203D23D
:1046A000994201D3012403E0011DE86800F0E2FA19
:1046B000204670BD6800002010B5044600F0FEFAE8
:1046C000A06B28B15FF0000400F018FB204610BD7D
:1046D0000124F9E730B589B03C4D6EE0049800281C
:1046E00006DADDE90601059A90470498002864DBA4
:1046F000069C606910B1201D00F084FA03A800F048
:10470000D7F8024604980A2857D2DFE800F00505DA
:10471000052D334A05052D3394F8280040F001009B
:1047200084F828000599A069059B01442046FFF7FD
:10473000A7FF68B3216A2046884794F828004007FD
:104740003BD5002000900598A16900234218194626
:10475000204601F039F9D8B9502080F31188BFF311
:104760004F8FBFF36F8FFEE714F8280F20F0010082
:10477000207022E094F8280040F0010084F828001E
:104780000598A06128B1811813462046FFF778FFED
:1047900013E0502080F31188BFF34F8FBFF36F8F6A
:1047A000FEE794F82800810703D4204600F0BAFA07
:1047B00003E020F0010084F82800002204A9286802
:1047C00000F052FE002889D109B030BD68000020F9
:1047D0002DE9FC410F46054600F0F4FB01A800F06E
:1047E00067F80446019818B101F05CF8BDE8FC8157
:1047F000254EAFB130690068D0B30027291B3A4677
:10480000306800F011FB01F04DF80028EED11F498F
:104810004FF080500860BFF34F8FBFF36F8FE5E715
:10482000A542EBD801F03EF8F0682746C068C4689E
:10483000201D00F0E7F994F82800410719D5A06978
:104840002B4641193A462046FFF71AFFA8B100202F
:104850000346014600902A46204601F0B5F860B9AB
:10486000502080F31188BFF34F8FBFF36F8FFEE7A7
:1048700007E020F0010084F82800216A20468847DC
:10488000B4E70127BAE700006800002004ED00E06B
:104890000648416B096829B1416BC968C968496814
:1048A000816270474FF0FF31FAE700002C000020D2
:1048B00070B5054600F014FF064E0446B068844209
:1048C00003D200F009F8012000E000202860204613
:1048D000B46070BD68000020F8B5194D20E0C068D4
:1048E000C4680668201D00F08DF9216A20468847BB
:1048F00094F82800400713D5A0693044B04206D987
:1049000024616060211DE86800F0B4F908E000202F
:104910000346014600903246204601F055F838B172
:10492000E86801680029DAD12969C5E90310F8BDF2
:10493000502080F31188BFF34F8FBFF36F8FFEE7D6
:104940006800002008484068401C4FF0500080F389
:10495000118804D0BFF34F8FBFF36F8FFEE7BFF313
:104960004F8FBFF36F8FFEE7A0000020074CE06879
:10497000016841B1C0680021D0F80000FFF728FFAE
:10498000FFF7A8FEF3E701210020F7E76800002009
:104990002DE9F041044600F091F994F9455004F1F5
:1049A000240609E0606A48B1304600F043FF08B1D0
:1049B00000F08AFA6D1E6DB2002DF3DC4FF0FF3669
:1049C00084F8456000F09AF900F078F994F94450C1
:1049D00004F1100709E0206948B1384600F02AFFC9
:1049E00008B100F071FA6D1E6DB2002DF3DC84F891
:1049F0004460BDE8F04100F081B9000070B50D4E93
:104A000001213046FDF7ECFB054600240120FFF7AD
:104A1000A9FB01213046FDF7E3FBA84201D00024A9
:104A20000546641CE4B2062CF0D3012800D0002017
:104A300070BD00000004004870B54FF09046802122
:104A40003046FDF7CDFB054600240120FFF78AFB29
:104A500080213046FDF7C4FBA84201D00024054662
:104A6000641CE4B2062CF0D3012800D0002070BDF5
:104A70002DE9F0410546002700F0A4FA324E3068D7
:104A800008B9FFF717FD706905424ED1C5B3083567
:104A900068070ED005F00700C0F10800054468075C
:104AA00007D0502080F31188BFF34F8FBFF36F8F73
:104AB000FEE72DB37068854237D823481830014689
:104AC0000C6801E020460C466168A94202D22168C8
:104AD0000029F7D131688C4227D00768216801602E
:104AE00060680837411B10290FD96019420708D0A8
:104AF000502080F31188BFF34F8FBFF36F8FFEE715
:104B000013E041606560FFF795FD61687068401AC9
:104B10007060B268904200D2B060706901430020BA
:104B2000C4E90001F068401CF06000F0BBFE7807AB
:104B300007D0502080F31188BFF34F8FBFF36F8FE2
:104B4000FEE73846BDE8F0818000002010B5031F65
:104B50004FF080741C601B1F21F001011960191FA8
:104B6000044B0B6014390A60091F6FF002024438CD
:104B70000A6010BD454900082DE9F0411E48A526F0
:104B80001E250670A0F801504FF001081B4CA0F143
:104B9000090780F80380387820762146182201F131
:104BA0001900FBF7C6FB7868C4F83100387A84F83E
:104BB00035003634002026706570A07084F80380BC
:104BC000FF2204212046FCF755F820710220607175
:104BD0000320A0711E22A4F11E01E01DFBF7A9FB1A
:104BE00027212046FBF7B6FE2146BDE8F0413223DF
:104BF00027220348FEF7D8B9C90000209C210020D5
:104C00007C030020D0E9013201699A60D0E90123D8
:104C10005A604A68824201D182684A600022026179
:104C20000868401E0860086870470000034B036076
:104C300003F15C000860802010607047C00A00200B
:104C4000044B036003F15C0008604FF48070106057
:104C5000704700001C0D002000F108014FF0FF32EA
:104C6000C0E90112C16001610021016070470021AB
:104C70000161704730B50B685A1C02D000F1080280
:104C800002E0026904E02246546825689D42FAD990
:104C900053684B6099608A60516008610168491CE3
:104CA000016030BD42684A6093688B6093685960C8
:104CB000916008610168491C01607047502080F3D1
:104CC0001188BFF34F8FBFF36F8F0A494868401CAC
:104CD000486001280CD10848006810F0FF0F07D089
:104CE000502080F31188BFF34F8FBFF36F8FFEE723
:104CF00070470000A000002004ED00E0084948686B
:104D000028B1401E486001D180F3118870475020BF
:104D100080F31188BFF34F8FBFF36F8FFEE7000062
:104D2000A000002070B500282AD0164DA0F108047C
:104D300060686969084207D1502080F31188BFF389
:104D40004F8FBFF36F8FFEE722683AB1502080F398
:104D50001188BFF34F8FBFF36F8FFEE7884360600A
:104D600000F030F960686968084468602046FFF721
:104D700061FC2869401C2861BDE8704000F092BDCC
:104D800070BD0000800000204FF0E0200021016194
:104D9000816105494FF47A720968B1FBF2F1491E4D
:104DA00041610721016170472800002010B5FBF721
:104DB00079FA114910280ED300F1E02090F8F003A1
:104DC0000A78904207D2502080F31188BFF34F8FAA
:104DD000BFF36F8FFEE709480068896800F4E06060
:104DE000884207D9502080F31188BFF34F8FBFF35B
:104DF0006F8FFEE710BD0000A00000200CED00E06A
:104E000010B5084B002200BF53F832401CB1521CB1
:104E1000082AF9D310BD43F8321003EBC2014860F1
:104E200010BD0000A404002070B515460E460446CF
:104E3000FFF744FF94F944100020491C01D184F885
:104E4000440094F94510491C01D184F84500FFF74E
:104E500055FFA06B28B92A46314604F1240000F022
:104E600051F82046BDE87040FFF792BD10B5020032
:104E700014D00F48006B38B1502080F31188BFF375
:104E80004F8FBFF36F8FFEE700F09CF800211046B4
:104E9000FFF7EAF900F006FD002807D105494FF0B9
:104EA00080500860BFF34F8FBFF36F8F10BD0000BD
:104EB0002C00002004ED00E002490A6A0260C96883
:104EC000416070472C00002001490120C8617047F3
:104ED0002C00002010B50C4650B109490968183162
:104EE000FFF7C8FE2046BDE810400121FFF7BCB91E
:104EF000502080F31188BFF34F8FBFF36F8FFEE711
:104F00002C00002070B514460D4668B10A490968A6
:104F10001831FFF7C7FE0CB14FF0FF352146284688
:104F2000BDE87040FFF7A0B9502080F31188BFF3AF
:104F30004F8FBFF36F8FFEE72C00002030B587B096
:104F40000024039405AA04A903A80494FFF76EFEA5
:104F5000DDE903010094CDE90110002315A11748F4
:104F6000059A00F084FB164D0028E8621FD000F07F
:104F7000FBFC012809D0401C19D1502080F3118876
:104F8000BFF34F8FBFF36F8FFEE7502080F3118880
:104F9000BFF34F8FBFF36F8F4FF0FF30A862012038
:104FA0006861EC6007B0BDE8304000F045B807B07C
:104FB00030BD000049444C45000000000145000898
:104FC0002C0000200248016B491C0163704700005F
:104FD0002C000020164810B5016B11B10121C161F0
:104FE00010BD0021C1610169124A01E0B9B1491E39
:104FF00001EB810352F82330002BF7D001EB810342
:1050000002EB830202F1080453685B685360A34219
:1050100001D15B685360DA680260016110BD502005
:1050200080F31188BFF34F8FBFF36F8FFEE700004F
:105030002C000020E40400201CB537480168374AE2
:10504000914207D1502080F31188BFF34F8FBFF3F7
:105050006F8FFEE700683149491E884207D1502012
:1050600080F31188BFF34F8FBFF36F8FFEE72C499A
:1050700008780190FF20087008788DF800009DF8EE
:1050800000009DF8002000F0F000904207D0502072
:1050900080F31188BFF34F8FBFF36F8FFEE79DF84A
:1050A0000000204C00F0500020700720A06005E0B8
:1050B0009DF8002052008DF80020401E9DF8002031
:1050C0001206F5D4A060032807D0502080F3118881
:1050D000BFF34F8FBFF36F8FFEE74FF44070A060B8
:1050E000019808700C482030016841F4700101609B
:1050F000016841F070410160FFF746FE00206060EA
:10510000FBF798F80848016841F040410160FBF75F
:105110007DF800201CBD000000ED00E071C20F41D1
:1051200000E400E0A000002034EF00E010B55020C3
:1051300080F31188BFF34F8FBFF36F8F00F0D6FA63
:1051400018B104494FF080500860002080F31188A6
:1051500010BD000004ED00E038B5049D18B153B156
:10516000CAB181B120E0502080F31188BFF34F8F86
:10517000BFF36F8FFEE7502080F31188BFF34F8F8E
:10518000BFF36F8FFEE7502080F31188BFF34F8F7E
:10519000BFF36F8FFEE739B1502080F31188BFF362
:1051A0004F8FBFF36F8FFEE750241C46012384F816
:1051B00046302B460094FFF7D3F9204638BD000057
:1051C00070B50D46040025D0FFF778FDD4E90F2017
:1051D000216802FB0011A1600021A16321686160C8
:1051E0000A46D4E90F01401E00FB0121E16021467F
:1051F0004FF0FF3001F8440F487004F110008DB1FA
:10520000FFF72AFD04F12400FFF726FDFFF776FDE6
:10521000012070BD502080F31188BFF34F8FBFF382
:105220006F8FFEE721690029F0D000F003FB002812
:10523000ECD004494FF080500860BFF34F8FBFF3AC
:105240006F8FE3E704ED00E02DE9FF4782B01D46D4
:105250008A464FF00008040003D0BAF1000F08D0CE
:1052600011E0502080F31188BFF34F8FBFF36F8F91
:10527000FEE7206C38B1502080F31188BFF34F8FC8
:10528000BFF36F8FFEE7022D0AD1E06B012807D034
:10529000502080F31188BFF34F8FBFF36F8FFEE76D
:1052A00000F010FA3F4F4FF000094FF0805648B918
:1052B000049838B1502080F31188BFF34F8FBFF3AB
:1052C0006F8FFEE7FFF7FAFCA06BE16B884207D314
:1052D000022D05D00498D0B1B8F1000F1AD01EE00D
:1052E0002A4651462046FFF794F8616A19B104F145
:1052F000240000F09FFA20B13E60BFF34F8FBFF350
:105300006F8FFFF7FBFC012006B0BDE8F087FFF7C9
:10531000F5FC22E06846FFF7CFFD4FF00108FFF7EC
:10532000EDFCFFF74FFEFFF7C9FC94F94400401C69
:1053300001D184F8449094F94500401C01D184F8CF
:105340004590FFF7DBFC04A9684600F029F930B16D
:105350002046FFF71DFB00F0A5FA0020D4E7FFF779
:10536000ADFCA06BE16B884213D1FFF7C7FC04F1E1
:1053700010000499FFF7AEFD2046FFF709FB00F08F
:1053800091FA00289ED13E60BFF34F8FBFF36F8F1D
:1053900098E7FFF7B3FC2046FFF7FAFA00F082FA2D
:1053A00090E7000004ED00E02DE9F0471F4690462D
:1053B0008946040003D0B9F1000F08D011E0502055
:1053C00080F31188BFF34F8FBFF36F8FFEE7206C20
:1053D00038B1502080F31188BFF34F8FBFF36F8F28
:1053E000FEE7022F0AD1E06B012807D0502080F39E
:1053F0001188BFF34F8FBFF36F8FFEE7FFF7D6FC27
:105400005020EFF3118680F31188BFF34F8FBFF365
:105410006F8FA06BE16B884206D3022F04D000206F
:1054200086F31188BDE8F08794F94550A06B3A46A1
:1054300049462046FEF7EDFF681C04D06D1C84F839
:1054400045500120ECE7606A0028FAD004F12400FE
:1054500000F0F0F90028F4D0B8F1000FF1D00121EC
:10546000C8F80010EDE700002DE9F747002683B0EB
:105470008A46040003D0BAF1000F08D011E0502092
:1054800080F31188BFF34F8FBFF36F8FFEE7206C5F
:1054900038B1502080F31188BFF34F8FBFF36F8F67
:1054A000FEE700F00FF9DFF8F4804FF000094FF04D
:1054B000805748B9059838B1502080F31188BFF360
:1054C0004F8FBFF36F8FFEE7FFF7F8FBA56BC5B1FA
:1054D00051462046FEF78AFF6D1EA563206950B134
:1054E00004F1100000F0A6F928B1C8F80070BFF36D
:1054F0004F8FBFF36F8FFFF701FC012006B0BDE8AF
:10550000F087059808B11EB106E0FFF7F7FB27E02A
:105510006846FFF7D1FC0126FFF7F0FBFFF752FDCD
:10552000FFF7CCFB94F94400401C01D184F844906F
:1055300094F94500401C01D184F84590FFF7DEFB4B
:1055400005A9684600F02CF8002820460AD0FFF78D
:105550001FFA00F0A7F92046FFF7AEF80028B3D0F5
:105560000020CBE7FFF7A8F890B104F124000599DB
:10557000FFF7B0FC2046FFF70BFA00F093F9002884
:10558000A2D1C8F80070BFF34F8FBFF36F8F9BE7B6
:105590002046FFF7FDF900F085F995E704ED00E0FE
:1055A0002DE9F0410C46050011D0C4B1FFF786FB90
:1055B000174BDA686E682068911B471C17D02F685C
:1055C0001B6A9F4219D0964217D8012410E0502040
:1055D00080F31188BFF34F8FBFF36F8FFEE750202A
:1055E00080F31188BFF34F8FBFF36F8FFEE7002466
:1055F000FFF784FB2046BDE8F081884205D9401AB8
:1056000020602846FFF758FCF1E700202060DCE727
:105610002C0000202DE9FF5F8346DDE90E879946C7
:1056200016468A469000FFF723FA05001CD05C203E
:10563000FFF71EFA040014D00020256384F85900F7
:10564000CDE90240CDE900874B46324651465846E7
:10565000FEF798FF2046FEF735FE012004B0BDE8B6
:10566000F09F2846FFF75EFB4FF0FF30F6E7F0B5FE
:1056700085B0DDE90B640A9DA6B1DCB15C2700971B
:105680002663022684F85960002604AFCDE902465D
:10569000CDE90057FEF776FF2046FEF713FE04988B
:1056A00005B0F0BD502080F31188BFF34F8FBFF3DA
:1056B0006F8FFEE7502080F31188BFF34F8FBFF349
:1056C0006F8FFEE70548416919B1006B18B10020E2
:1056D0007047012070470220704700002C00002016
:1056E0000148C068704700002C0000202DE9F041FF
:1056F0002E4C0027206B28B1A069401CA0613846C1
:10570000BDE8F081E668761CE66013D1606B006846
:1057100038B1502080F31188BFF34F8FBFF36F8FE4
:10572000FEE7606BA16B6163A063206A401C20628E
:10573000FFF7AEF8A06ADFF87880864209D3606B85
:105740000068A0B1606BC068C5686868864211D205
:10575000A0622068C06A00EB800158F8210001288F
:1057600000D90127E0690028C9D00127C7E74FF019
:10577000FF30EDE7281DFFF745FAA86A18B105F1DB
:105780001800FFF73FFAE86A2169884200D92061D2
:1057900000EB800108EB8100291DFFF783FAE86A1E
:1057A0002168C96A8842CAD30127C8E72C000020B3
:1057B000E404002070B504004FF0000133D01B4D0D
:1057C0002868844207D0502080F31188BFF34F8FA0
:1057D000BFF36F8FFEE7206D38B1401E2065E36C8C
:1057E000E26A9A421FD040B11DE0502080F3118838
:1057F000BFF34F8FBFF36F8FFEE7201DFFF702FA55
:10580000E06CE062C0F13800A061E06A296988427A
:1058100000D92861064900EB800001EB8000211DC2
:10582000FFF740FA0121084670BD00002C0000205F
:10583000E404002070B5C068C46854B104F11800D5
:105840000646FFF7DFF9144D286B50B13146134877
:1058500015E0502080F31188BFF34F8FBFF36F8F97
:10586000FEE7201DFFF7CEF9E06A2969884200D9DA
:1058700028610B4900EB800001EB8000211DFFF740
:1058800011FAE06A2968C96A884202D90120E861F0
:1058900070BD002070BD00002C0000206C090020AD
:1058A000E40400202DE9F0472C4D00242746286B06
:1058B00038B1FFF703FA286B401E2863286B40B10C
:1058C00046E0502080F31188BFF34F8FBFF36F8FF6
:1058D000FEE7A968224E0120D1B3A6F59169804662
:1058E0003068E0B1F068C46804F11800FFF78AF985
:1058F000201DFFF787F9E06A2969884200D92861ED
:1059000000EB800109EB8100211DFFF7CBF9E06A74
:105910002968C96A8842E3D3C5F81C80E0E70CB166
:10592000FEF7B6FFAC694CB14FEA0806FFF7DEFEA2
:1059300000B1EE61641EF9D10020A861E86938B1B8
:105940000849012738070860BFF34F8FBFF36F8FF7
:10595000FFF7D4F93846BDE8F08700002C0000209E
:105960006C09002004ED00E010B586B0FEF712FDD2
:10597000114C2068B8B100200390049005AA04A936
:1059800003A8FFF75DF9DDE9032102208DE8070098
:1059900000230AA10B48059AFFF769FE606010B169
:1059A00006B0012010BD502080F31188BFF34F8F47
:1059B000BFF36F8FFEE7000068000020546D722077
:1059C000537663006D4900082DE9FF411E461346DA
:1059D00002000A9D4FF0000016D0144C2768002FDB
:1059E0000FD0CDE900130292062917DAFFF76AFEFD
:1059F00002284FF000030FD0002269462068FFF70D
:105A000023FC04B0BDE8F081502080F31188BFF37F
:105A10004F8FBFF36F8FFEE72A46EEE70023324633
:105A200069463846FFF7C0FCEBE70000680000203D
:105A30001C5E0008000000000000000000000000E4
:105A400000000000000200000C0000000000000048
:105A500000000000105E00080000000000000000D0
:105A60000000000000000000000400001C00000016
:105A700000000000000000002C5E00080000000094
:105A80000000000000000000000000000004000012
:105A90001E00000000000000000000003C5E000846
:105AA00000000000000000000000000000000000F6
:105AB000000400001D0000000000000000000000C5
:105AC0000001020304050607080C101418203040DA
:105AD000010002000400060008000A000C0010008B
